:03000000020006F5
:03005F0002000399
:0300030002006296
:200062007508C07509F9750AA4750BB0750C99750D92750E82750FF87510807511987F071F
:200082007580FD208404AF11800C208504AF108005208602AF0F7580FB208404AF0E800C44
:2000A200208504AF0D8005208602AF0C7580F7208404AF0B800C208504AF0A800520860288
:0A00C200AF09C2B3C2B48F9080F8FA
:06003500E478FFF6D8FD9F
:200013007900E94400601B7A009000D0780175A000E493F2A308B8000205A0D9F4DAF275C3
:02003300A0FF2C
:20003B007800E84400600A790175A000E4F309D8FC7800E84400600C7900900001E4F0A3C3
:04005B00D8FCD9FAFA
:0D0006007581111200CCE582600302000339
:0400CC007582002217
:00000001FF
