:03000000020006F5
:03005F0002000399
:030003000200C731
:200062007512C07513F97514A47515B07516997517927518827519F8751A80751B98AF1280
:200082007580FD208404AF1B800C208504AF1A8005208602AF197580FB208404AF18800C1C
:2000A200208504AF178005208602AF167580F7208404AF15800C208504AF14800520860260
:2000C200AF138F82227508C07509F9750AA4750BB0750C99750D92750E82750FF87510806E
:2000E200751198120062AF828F06BFC00280F4C006120062AF82D006BFC0F4C006120062C3
:20010200AF82D0068F05BFC00280F0C006C005120062AF82D005D006BFC0F0C006C005126A
:200122000062AF82D005D0068F04BFC00280ECC006C005C004120062AF82D004D005D0068C
:20014200BFC0ECC006C005C004120062AF82D004D005D0068F03BFC00280E8C287C2B3C2C4
:20016200B4D2878B907F00BF050050030F80F8C287D2B3C2B4D2878C907F00BF05005003E9
:200182000F80F8C287C2B3D2B4D2878D907F00BF050050030F80F8C287D2B3D2B4D2878EC4
:0B01A200907F00BF050050B30F80F8F5
:06003500E478FFF6D8FD9F
:200013007900E94400601B7A009001B1780175A000E493F2A308B8000205A0D9F4DAF275E1
:02003300A0FF2C
:20003B007800E84400600A790175A000E4F309D8FC7800E84400600C7900900001E4F0A3C3
:04005B00D8FCD9FAFA
:0D00060075811B1201ADE58260030200034D
:0401AD007582002235
:00000001FF
