:03000000020006F5
:03005F0002000399
:0300030002006296
:200062007F0130A00F8F06EE2EFF70027F01EFF4F59080EEEFC313FF70027F80EFF4F5900A
:0200820080E01C
:06003500E478FFF6D8FD9F
:200013007900E94400601B7A00900088780175A000E493F2A308B8000205A0D9F4DAF2750B
:02003300A0FF2C
:20003B007800E84400600A790175A000E4F309D8FC7800E84400600C7900900001E4F0A3C3
:04005B00D8FCD9FAFA
:0D00060075810A120084E582600302000388
:04008400758200225F
:00000001FF
