:03000000020006F5
:03005F0002000399
:0300030002006296
:200062007F017E01BE01078F05ED2DFF8004EFC313FFBF80047E008005BF01027E01EFF45A
:04008200F59080E095
:06003500E478FFF6D8FD9F
:200013007900E94400601B7A0090008A780175A000E493F2A308B8000205A0D9F4DAF27509
:02003300A0FF2C
:20003B007800E84400600A790175A000E4F309D8FC7800E84400600C7900900001E4F0A3C3
:04005B00D8FCD9FAFA
:0D00060075810A120086E582600302000386
:04008600758200225D
:00000001FF
