:03000000020006F5
:03005F0002000399
:0300030002006296
:20006200C2B3C2B47F01759088BF011D20B304D2B3800720B404D2B4C2B330B3E930B4E65D
:200082007401C39FFFC2B380DD10B30730B404A2B4A2B320B3D020B4CD7401C39FFFD2B3BA
:0200A20080C418
:06003500E478FFF6D8FD9F
:200013007900E94400601B7A009000A8780175A000E493F2A308B8000205A0D9F4DAF275EB
:02003300A0FF2C
:20003B007800E84400600A790175A000E4F309D8FC7800E84400600C7900900001E4F0A3C3
:04005B00D8FCD9FAFA
:0D0006007581071200A4E58260030200036B
:0400A400758200223F
:00000001FF
