:0400000002001132B7
:03000B0002006D83
:03006A0002000E83
:03000E0002009756
:20006D00C0E0C007C0D075D000E508F4F590E50825E0F508E5087003750801C28D758CC8EC
:20008D00758A00D0D0D007D0E032C28C758CC8758A00758901750801D2AFD2A9D28C80FE90
:06004000E478FFF6D8FD94
:20001E007900E94400601B7A009000B1780175A000E493F2A308B8000205A0D9F4DAF275D7
:02003E00A0FF21
:200046007800E84400600A790175A000E4F309D8FC7800E84400600C7900900001E4F0A3B8
:04006600D8FCD9FAEF
:0D0011007581081200ADE582600302000E4B
:0400AD007582002236
:00000001FF
