:03000000020006F5
:03005F0002000399
:0300030002006296
:200062007508C07509F9750AE4750BB0750C99750D92750E82750FF8751080751198C2871C
:20008200C2B3C2B4D2878508907F00BF050050030F80F8C287D2B3C2B4D2878509907F00A6
:0800A200BF050050D90F80F8E2
:06003500E478FFF6D8FD9F
:200013007900E94400601B7A009000AE780175A000E493F2A308B8000205A0D9F4DAF275E5
:02003300A0FF2C
:20003B007800E84400600A790175A000E4F309D8FC7800E84400600C7900900001E4F0A3C3
:04005B00D8FCD9FAFA
:0D0006007581111200AAE58260030200035B
:0400AA007582002239
:00000001FF
